:020000040200F8
:1000000008710022B1AE0002ADAC0002B34900029B
:10001000BFAE0002BFAE0002BFAE0002BFAE000224
:10002000000000000000000000000000BFAE000261
:10003000BFAE000200000000EB4800025DB200020B
:10004000019D00028B9B0002419E0002959E0002D2
:1000500000000000000000000000000000000000A0
:100060000000000000000000000000000000000090
:100070000000000000000000000000000000000080
:100080000000000000000000000000000000000070
:100090000000000000000000000000000000000060
:1000A0000000000000000000000000000000000050
:1000B0000000000000000000000000000000000040
:1000C0000000000000000000000000000000000030
:1000D0000000000000000000000000000000000020
:1000E0000000000000000000000000000000000010
:1000F0000000000000000000000000000000000000
:1001000000000000000000000000000000000000EF
:1001100000000000000000000000000000000000DF
:1001200000000000000000000000000000000000CF
:1001300000000000000000000000000000000000BF
:1001400000000000000000000000000000000000AF
:10015000000000000000000000000000000000009F
:10016000000000000000000000000000000000008F
:10017000000000000000000000000000000000007F
:10018000000000000000000000000000000000006F
:10019000000000000000000000000000000000005F
:1001A000000000000000000000000000000000004F
:1001B000000000000000000000000000000000003F
:1001C000FFFFFFFFFFFFFFFFFFFFFFFFFFFFFFFF3F
:1001D000FFFFFFFFFFFFFFFFFFFFFFFFFFFFFFFF2F
:1001E000FFFFFFFFFFFFFFFFFFFFFFFFFFFFFFFF1F
:1001F000FFFFFFFFFFFFFFFFFFFFFFFFFFFFFFFF0F
:1002000010B5054C237833B9044B13B1044800E012
:1002100000BF0123237010BD400600220000000033
:10022000C0F5000208B5034B1BB10349034800E0C9
:1002300000BF08BD0000000044060022C0F5000217
:1002400080B500AF0A4802F04DF801214FF48170EB
:1002500008F054F94FF4FA7003F0CCFC00214FF48D
:10026000817008F04BF94FF4FA7003F0C3FCECE72F
:100270009CC4000280B400AF034B1B681846BD4607
:100280005DF8047B704700BF5C06002280B582B039
:1002900000AF1B4B1B68002B02D0194B1B68984703
:1002A00004F00CFB7860174B1B680133154A136090
:1002B00003F07AFA38603B689B6D5A1E3B689A657A
:1002C0003B689B6D002B12D13B685A6D3B689A6569
:1002D0003B6893F8383043F00803DAB23B6883F8A0
:1002E0003820786804F0EEFA02F03CFF02E078680B
:1002F00004F0E8FA04F054F900BF0837BD4680BDA9
:10030000600600225C06002280B485B000AF7860F1
:100310007B68002B03DA4FF0FF33FB6027E07B683C
:10032000164A82FB03129211DB17D31A4FF47A722A
:1003300002FB03F3FB607A68104B83FB02139911F5
:10034000D317CB1A4FF47A7101FB03F3D31A4FF48E
:100350007A7202FB03F303F2E733084A82FB0312CB
:100360009211DB17D31A1A46FB681344FB60FB6833
:1003700018461437BD465DF8047B7047D34D6210B4
:1003800080B400AF00231846BD465DF8047B70477B
:1003900080B400AF00231846BD465DF8047B70476B
:1003A00080B400AF00231846BD465DF8047B70475B
:1003B00080B400AF00231846BD465DF8047B70474B
:1003C00080B582B000AF094B7B6005E07B681B689D
:1003D00098477B6804337B607B68054A9342F5D37A
:1003E00000BF00BF0837BD4680BD00BF88C4000203
:1003F00090C4000280B582B000AF094B7B6005E07D
:100400007B681B6898477B6804337B607B68054A80
:100410009342F5D300BF00BF0837BD4680BD00BF83
:1004200090C4000298C4000280B500AF00F036F816
:100430000023184680BD80B582B000AF7860FFF71A
:10044000D9FF09F045F800BF0837BD4680BDFFFF62
:1004500080B584B002AF142301930A2300934FF4B4
:100460000063002209490A4803F062FA78607B6859
:10047000002B04D1D6220749074802F035F87868E6
:1004800003F09EF900BF0837BD4680BD3704000267
:10049000B0C40002C8C40002B8C4000280B500AFF6
:1004A00004F00CFA0AF0E4FE01F0E8F904F0B8F9FF
:1004B00002F016FEFFF7CCFF04F0CCF900F0B6F81E
:1004C00002F032FE0023184680BD80B483B000AF36
:1004D000786039607B681B683A685A607B681A6884
:1004E0003B681A607B683A681A603B687A685A60B1
:1004F00000BF0C37BD465DF8047B704780B483B005
:1005000000AF78607B681B687A6852685A607B68C5
:100510005B687A6812681A607B687A685A607B68E0
:100520005A687B681A6000BF0C37BD465DF8047BD3
:100530007047FFFF80B582B000AF78607B681833EA
:1005400019460348FFF7C1FF00BF0837BD4680BD0D
:100550000000002280B584B000AF0023FB600D4B8B
:10056000BB60BB681B68BA689A420ED0BB681B6848
:10057000183BFB6004F0A2F97860FB68183318465A
:10058000FFF7BCFF786804F09DF9FB681846103748
:10059000BD4680BD0000002280B584B000AFFFF7EB
:1005A000D9FFF860FB68002B1FD0FB68D3F88C30B4
:1005B000BB60F86802F02AFC78607B68012B02D1EE
:1005C000F86802F04BFBBB68002B02D0BB68F868F0
:1005D00098477B68002BE2D1FB68DB6A184601F084
:1005E00063FFF86802F0D4FBD9E700BF00BF103703
:1005F000BD4680BD80B584B000AF78600023FB604D
:100600000CE0094AFB6852F82330BB60BB68002B42
:1006100001D0BB689847FB680133FB60FB68032B84
:10062000EFD9FFF7B9FFE9E7F807002280B588B0F6
:1006300004AF0023FB6028E03846FB68174A0C2112
:1006400001F0F4FDFB68942202FB03F3144A9818AE
:10065000FB681B02134A13443946202203921F22CF
:1006600002924FF480720192009300230E4A03F02D
:1006700063F8FB68942202FB03F3094A134418460B
:1006800003F09EF8FB680133FB60FB68002BD3D0BE
:1006900000BF00BF1037BD4680BD00BFDCC40002F4
:1006A00064060022F8060022F505000280B483B03B
:1006B00000AF78607B687A685A607B685A687B68AC
:1006C0001A6000BF0C37BD465DF8047B704780B4EC
:1006D00083B000AF786039607B681B683A685A6005
:1006E0007B681A683B681A607B683A681A603B68E6
:1006F0007A685A6000BF0C37BD465DF8047B7047CE
:1007000080B483B000AF786039607B685B683A681A
:100710001A607B685A683B685A607B683A685A601E
:100720003B687A681A6000BF0C37BD465DF8047BF1
:10073000704780B483B000AF78607B681B687A68CC
:1007400052685A607B685B687A6812681A607B68D6
:100750007A685A607B685A687B681A6000BF0C37F9
:10076000BD465DF8047B704780B483B000AF78600D
:100770007B681B687A689A420CBF01230023DBB2B6
:1007800018460C37BD465DF8047B704780B582B0D3
:1007900000AF78607B6818331846FFF787FF0023A7
:1007A00018460837BD4680BD80B588B000AFF860F8
:1007B000B9603B601346FB71BB6893F8383003F0B7
:1007C0000403002B09D13968B86803F0E9FAB8616D
:1007D000BB69002B01D0BB693FE0FB79002B02D045
:1007E000012B07D031E0BB6818331946F868FFF7D2
:1007F00087FF31E0FB681B68FB6117E0FB69183B72
:100800007B61BB6893F839207B6993F839309A4251
:1008100009D27B6903F11802BB68183319461046E8
:10082000FFF76EFF06E0FB691B68FB61FA69FB6876
:100830009A42E3D1FA69FB689A420CD1BB6818333B
:100840001946F868FFF75CFF05E0B622054906483F
:1008500001F04AFE00E000BF002318462037BD46E5
:1008600080BD00BF08CA0002E4C4000280B584B0A5
:1008700000AF78607B681B68183BFB60FB68002258
:100880005A63F86803F0FAFA002318461037BD4699
:1008900080BDFFFF80B584B000AFF860B9607A60BA
:1008A000FB70FB68002B05D140F23F121749184836
:1008B00001F01AFE7B68B3F5803F05D34FF4A072B8
:1008C0001249144801F010FEFB78002B08D0FB7889
:1008D000012B05D040F241120C490F4801F004FEF3
:1008E000FB68BA680221184602F056F9FB68184600
:1008F000FFF74CFF7B689AB2FB681A84FB68FA78B2
:100900005A73002318461037BD4680BDECC900025B
:10091000E8C40002F8C400020CC5000280B58CB027
:1009200000AFF860B9607A60FB68002B05D140F237
:10093000FD126649664801F0D7FDFB68184602F0D3
:1009400083FA0346022B05D04FF4FF725F496148DA
:1009500001F0CAFD604B1B68002B04D05E4B1B6886
:10096000FA6810469847FB681B8C002B51D1BB6876
:10097000002B4ED000F066FDF86203F09FFFB862D6
:1009800002F0AAFD0346002B09D05049534801F05C
:10099000A9FC40F203224D49514801F0A5FDFB6A34
:1009A000012B09D149494F4801F09CFC40F2032238
:1009B00046494B4801F098FD03F080FF786202F051
:1009C000F3FE0346002B09D14049474801F08AFC59
:1009D00040F203223D49424801F086FD03F06EFFDC
:1009E000386200F01BFD0346002B09D037493F4811
:1009F00001F078FC40F203223449394801F074FDDB
:100A0000386A03F05FFF786A03F05CFFB86A03F0AE
:100A100059FF03F053FFF861FB681B8C002B09D0D2
:100A2000FB681B8C013B9AB2FB681A84F86903F0DF
:100A300049FF3DE0BB68002B05D1F86903F042FF98
:100A40006FF073033EE002F0AFFEB861BB696FF078
:100A500003025A63FB6803F11800FB685A7B7B684A
:100A6000B969FFF7A1FE78617B69002B04D0F869B2
:100A700003F028FF7B6925E0BB68002B0CDDBB6918
:100A80005C3307F108020021184603F0F3FCBB6950
:100A90005C33184603F08EFBF86903F013FF02F095
:100AA00061FBBB695B6B002B02D0BB695B6B09E030
:100AB0000F4B1B68002B04D00D4B1B68FA681046C7
:100AC0009847002318463037BD4680BDF8C900025C
:100AD000E8C4000248C500025009002224C60002F2
:100AE000E4C4000250C6000278C60002C0C500027D
:100AF0005409002280B582B000AF786039600222CC
:100B000039687868FFF70AFF034618460837BD467C
:100B100080BDFFFF80B584B000AF78607B68002B9C
:100B200005D140F28B222749274801F0DDFC7B6884
:100B3000184602F089F90346022B05D04FF42372C0
:100B40002049224801F0D0FC214B1B68002B04D027
:100B50001F4B1B687A68104698470023FB6003F020
:100B6000ADFEB8607B6818331846FFF7FDFD0346FD
:100B7000002B07D17B6818331846FFF777FE012357
:100B8000FB6012E07B681B8C4FF6FF72934206D02D
:100B90007B681B8C01339AB27B681A8405E0B868C5
:100BA00003F090FE6FF01B0308E0B86803F08AFEC4
:100BB000FB68012B01D102F0D5FA0023184610374B
:100BC000BD4680BD1CCA0002E8C4000248C5000240
:100BD0005809002280B584B000AF78607B68183374
:100BE0001846FFF7C1FD0346002B0AD17B689B69BD
:100BF000183BFB60FB6893F839207B6883F8212061
:100C000003E07B68FF2283F821207B6893F8213082
:100C100018461037BD4680BD80B487B000AF7860FD
:100C200000237B610023FB607B6893F83A30FB7400
:100C30007B681B6C7B6117E07B69283BFB60FB6872
:100C400093F82130FB72FB6893F82030FA7A9342D4
:100C500028BF1346FB72FA7CFB7A9A4201D9FB7AD1
:100C6000FB747B691B687B617B6840337A699A42BD
:100C7000E2D1FB7C18461C37BD465DF8047B70470B
:100C800080B588B000AFF8600B467A60FB726FF0F9
:100C9000FE03FB610023BB6107F10B031A4602212F
:100CA000F86802F0B7FFF86145E0FB689B6CBB6138
:100CB000BB69002B3CD0B86902F0C6F80346032B91
:100CC00036D1FF23FB74BB697B61FB681833184680
:100CD000FFF72FFD7B6903F118007B695A7B7B6866
:100CE000F968FFF761FDF861FB69002B23D1786992
:100CF000FFF770FF7B695B6A1846FFF78DFF0346BD
:100D0000FB747B695B6A93F83920FB7C9A420BD0B9
:100D10007B695B6AFB6007F113031A460221F868DE
:100D200002F078FFF86106E06FF0FE03FB6102E07D
:100D30006FF0FE03FB61FB69002B06D1FB6893F8A3
:100D4000383003F00403002BAFD100BF2037BD467D
:100D500080BDFFFF80B584B000AFF860B960134676
:100D6000FB71FB68002B05D140F271321449154824
:100D700001F0BAFBFB68BA680321184601F00CFFCA
:100D8000FB681846FFF702FDFB6800225A62FB6809
:100D9000FF2283F82120FB68002283F82220FB68D1
:100DA000FF2283F82020FB6828331846FFF77EFCDB
:100DB000FB6801225A73002318461037BD4680BDD8
:100DC0002CCA0002B0C6000280B586B000AF7860C1
:100DD000396000237B613B6818331846FFF7A9FC94
:100DE0007B685B6A002B0AD07B685B6A93F83920CA
:100DF0003B6893F839309A4201D101237B617B68CB
:100E000018331846FFF7B0FC0346002B0AD17B6865
:100E10009B69183B3B613B6993F839207B6883F8F9
:100E2000212003E07B68FF2283F821207B69002BCF
:100E300014D07B685B6A1846FFF7EEFE0346FB732F
:100E40007B685B6A93F83930FA7B9A4206D07B68FC
:100E50005B6AF97B02221846FFF712FF00BF1837C2
:100E6000BD4680BD80B58EB000AFF860B9607A60D5
:100E700000F0E8FAF86203F021FDB86202F02CFB02
:100E80000346002B09D09A499A4801F02BFA40F208
:100E90009F429749984801F027FBFB6A012B09D133
:100EA0009349964801F01EFA40F29F4290499248B9
:100EB00001F01AFB03F002FD786202F075FC0346B4
:100EC000002B09D18A498E4801F00CFA40F29F426A
:100ED0008749894801F008FB03F0F0FC386200F014
:100EE0009DFA0346002B09D08149864801F0FAF9A2
:100EF00040F29F427E49804801F0F6FA386A03F0DA
:100F0000E1FC786A03F0DEFCB86A03F0DBFCFB6806
:100F1000002B05D140F2A24275497B4801F0E4FA6A
:100F2000FB68184601F090FF0346032B05D040F202
:100F3000A3426F49754801F0D7FA02F035FCF86119
:100F400003F0BCFC7863724B1B68002B04D0704B21
:100F50001B68FA6810469847FB6900225A63FB68D1
:100F60005B6AFA699A4213D1FB6893F82230FF2B2F
:100F700008D0FB6893F822300133DAB2FB6883F8BB
:100F80002220F2E0786B03F09DFC6FF01B03F9E088
:100F9000FB685B6A002B2BD1FB68FA695A62FB681D
:100FA000FF2283F82120FB68012283F82220FB68BE
:100FB00093F82030FF2B11D0FB6893F82020FB68BA
:100FC0005B6A93F839309A4208D2FB68586AFB682A
:100FD00093F820307A681946FFF752FEFB6903F157
:100FE0004002FB68283319461046FFF770FBBCE04F
:100FF000BB68002B09D1FB696FF073025A63786BF1
:1010000003F060FC6FF07303BCE0FB6993F83930C8
:10101000FB76FB6803F11800FB685A7B7B68F96973
:10102000FFF7C2FB78617B69002B04D0786B03F07B
:1010300049FC7B69A6E0FA68FB699A64FB6893F84F
:101040002130FA7E9A4213D2FB68FA7E83F821207F
:10105000FB6893F82120FB685B6A93F839309A4269
:1010600006D2FB685B6AF97E02221846FFF708FE8B
:10107000BB68002B0CDDFB695C3307F10802002123
:10108000184603F0F7F9FB695C33184603F092F851
:10109000786B03F017FC02F065F803F00FFC78633F
:1010A000FB695B6B002B60D000233B63FB685B6AD2
:1010B000002B0AD0FB685B6A93F83920FB6993F830
:1010C00039309A4201D101233B63FB68183318463B
:1010D000FFF74AFB0346002B1CD1FB689B69183BBA
:1010E0003B613B6993F83920FB6883F8212015E0C8
:1010F0003CCA000224C60002E4C4000250C600023A
:1011000078C60002C0C50002B0C60002C4C6000214
:1011100050090022FB68FF2283F821203B6B002B43
:1011200014D0FB685B6A1846FFF776FD0346FB7632
:10113000FB685B6A93F83930FA7E9A4206D0FB6806
:101140005B6AF97E02221846FFF79AFD786B03F07E
:10115000B9FBFB6900229A64FB695B6B7B617B696D
:10116000002BB8BF5B425B420CE0786B03F0AAFB3C
:10117000064B1B68002B04D0044B1B68FA68104612
:101180009847002318463837BD4680BD54090022D1
:1011900080B582B000AF7860396002223968786823
:1011A000FFF760FE034618460837BD4680BDFFFFC7
:1011B00080B58AB000AF78607B68002B05D140F223
:1011C00099526F496F4801F08FF97B68184601F01A
:1011D0003BFE0346032B05D040F29A5268496A4809
:1011E00001F082F900237B6203F068FB386202F0B1
:1011F000DBFA0346002B09D16149644801F072F81B
:1012000040F29F525E49624801F06EF903F056FBCE
:10121000F86100F003F90346002B09D058495D48F6
:1012200001F060F840F29F525549594801F05CF9CD
:10123000F86903F047FB386A03F044FB02F0B4FAA4
:10124000B86103F03BFB7861534B1B68002B04D063
:10125000514B1B687A68104698477B685B6ABA698D
:101260009A4209D0BB696FF0FE025A63786903F0B5
:1012700029FB6FF0FE037FE07B6893F82230013B8F
:10128000DAB27B6883F822207B6893F82230002B47
:1012900069D17B6828331846FFF74BFA7B6893F8CF
:1012A0002030FF2B07D1BB6993F839207B6893F876
:1012B00021309A420FD1FF23FB72B869FFF7ACFCD3
:1012C0000346FB7207F10B031A460221B86902F0CC
:1012D000A1FC01237B627B6818331846FFF744FAB0
:1012E0000346002B38D17B689B69183B3B613B6907
:1012F00018331846FFF71DFA7B683A695A627B6813
:10130000012283F822203B6903F140027B682833E5
:1013100019461046FFF7DBF93B6900229A643869E9
:1013200002F0ACFD7B6818331846FFF71DFA034640
:10133000002B0AD17B689B69183BFB60FB6893F824
:1013400039207B6883F8212003E07B68FF2283F843
:10135000212001237B6206E07B6800225A627B68C1
:10136000FF2283F82120786903F0ACFA7B6A012B15
:1013700001D101F0F7FE002318462837BD4680BD95
:101380004CCA0002B0C60002C4C6000278C6000201
:10139000E4C40002C0C500025809002280B582B032
:1013A00000AF03F08BFA78600A4B1B78DBB2013395
:1013B000DAB2084B1A70084B1B68002B02D0064BA0
:1013C0001B689847786803F07DFA00BF0837BD4670
:1013D00080BD00BF100800220808002280B582B03E
:1013E00000AF03F06BFA78600A4B1B68002B02D049
:1013F000084B1B689847084B1B78DBB2013BDAB2FD
:10140000054B1A70786803F05DFA00BF0837BD46D7
:1014100080BD00BF0C0800221008002280B582B0F9
:1014200000AF03F04BFA7860054B1B78FB707868CF
:1014300003F048FAFB7818460837BD4680BD00BF68
:101440001008002280B400AF00231846BD465DF8A6
:10145000047B704780B485B000AF78607B68002B58
:1014600002DA7B685B427B600023FB600FE00D4A81
:10147000FB6852F833307A689A4205D1094AFB6812
:10148000DB0013445B6806E0FB680133FB60FB682C
:101490000E2BECD9044B18461437BD465DF8047B7F
:1014A000704700BF0800002250CC000280B584B015
:1014B00000AF78600023FB60FFF7B0FF0346002B0E
:1014C00003D00A4A7B6813600CE002F06DF9F86003
:1014D000FB68002B03D1054A7B68136002E0FB68C0
:1014E0007A685A631037BD4680BD00BF14080022D9
:1014F00080B582B000AF00237B60FFF78FFF03460B
:10150000002B01D0074B09E002F04EF978607B68B0
:10151000002B02D07B68343300E0024B18460837BA
:10152000BD4680BD1408002280B48BB000AFF860C7
:10153000B9607A6000237B62FB683B6200237B61B9
:101540000023FB61BB68FB767B68032B44D9FB68F7
:1015500003F00303002B3FD1FB68FB6100237B6298
:1015600008E007F114027B6A1344FA7E1A707B6A62
:1015700001337B627B6A032BF3D916E0FB691A1DEA
:10158000FA617A691A60FB691A1DFA617A691A6050
:10159000FB691A1DFA617A691A60FB691A1DFA6102
:1015A0007A691A607B68103B7B607B680F2BE5D8FB
:1015B00007E0FB691A1DFA617A691A607B68043BCF
:1015C0007B607B68032BF4D8FB693B6204E03B6AD9
:1015D0005A1C3A62FA7E1A707B685A1E7A60002B97
:1015E000F5D1FB6818462C37BD465DF8047B704783
:1015F00080B48BB000AFF860B9607A60FB687B6242
:10160000BB683B620023FB610023BB617B687B619D
:101610007B690F2B4DD93A6A7B6A134303F00303AE
:10162000002B46D17B6AFB613B6ABB6122E0BA6951
:10163000131DBB61FB69191DF96112681A60BA6953
:10164000131DBB61FB69191DF96112681A60BA6943
:10165000131DBB61FB69191DF96112681A60BA6933
:10166000131DBB61FB69191DF96112681A607B6962
:10167000103B7B617B690F2BD9D80AE0BA69131D37
:10168000BB61FB69191DF96112681A607B69043B33
:101690007B617B69032BF1D8FB697B62BB693B6291
:1016A00007E03A6A531C3B627B6A591C79621278E4
:1016B0001A707B695A1E7A61002BF2D1FB681846BA
:1016C0002C37BD465DF8047B704780B487B000AF0F
:1016D000F860B9607A60FB687B61BB683B613A691E
:1016E0007B699A4226D23A697B6813447A699A42A6
:1016F00020D27A697B6813447B613A697B68134422
:101700003B6109E03B69013B3B617B69013B7B61DC
:101710003B691A787B691A707B685A1E7A60002BC5
:10172000F0D10CE03A69531C3B617B69591C79612B
:1017300012781A707B685A1E7A60002BF2D1FB680F
:1017400018461C37BD465DF8047B704780B487B0EF
:1017500000AFF860B9607A607B68002B21D0FB682D
:101760007B61BB683B613A69531C3B617B69591CD7
:10177000796112781A701B78002B0CD104E07B6918
:101780005A1C7A6100221A707B68013B7B607B687F
:10179000002BF4D105E07B68013B7B607B68002B6C
:1017A000E1D1FB6818461C37BD465DF8047B7047E5
:1017B00080B487B000AFF860B9607A600023FB7531
:1017C00015E0FB681A78BB68591CB9601B78D31AFE
:1017D000DBB2FB7597F91730002B0BD1FB685A1C55
:1017E000FA601B78002B05D07B68013B7B607B682F
:1017F000002BE6D197F9173018461C37BD465DF827
:10180000047B704780B483B000AF7860396005E036
:101810007B6801337B603B6801333B607B681B78EE
:10182000002B05D07B681A783B681B789A42EFD072
:101830007B681B781A463B681B78D31A18460C370E
:10184000BD465DF8047B704780B485B000AF78601A
:101850000023FB607B68FB6002E0FB680133FB60F8
:10186000FB681B78002BF8D1FA687B68D31A1846FE
:101870001437BD465DF8047B7047FFFF80B582B02A
:1018800002AF0B4800F02EFD0A4800F02BFD0A4B7A
:1018900001930A4B0093022300220521084800F01F
:1018A00021FD084800F01EFD00BFBD4680BD00BF01
:1018B00058CC000264CC0002ACCC0002B8CC0002D0
:1018C00088CC0002C4CC000280B485B000AF786040
:1018D00039607B681B683A68B3FBF2F101FB02F2E6
:1018E0009B1AFB607B681A683B68B2FBF3F27B686B
:1018F0001A60FB6818461437BD465DF8047B7047D4
:1019000080B485B000AF78600023FB600EE0FA6819
:1019100013469B0013445B0018467B681B68591CE8
:101920007A6811601B780344303BFB607B681B685E
:101930001B78303B092BEAD9FB6818461437BD46A3
:101940005DF8047B7047FFFF80B592B000AFF86090
:10195000B9607A603B60002387F83B30002387F84A
:10196000473000233B6107F1140300221A605A60DC
:101970009A60DA601A615A619A61BB6D7B630023D9
:101980003B6300233B640023FB637B6DFB63FB6DC8
:1019900003F04003002B01D0944B00E0944B3B63D9
:1019A000FB6D03F01003002B03D0FB6D23F001034C
:1019B000FB65FB6D03F00103002B01D0302300E039
:1019C000202387F83B30002387F84730FB6D03F076
:1019D0000203002B46D03B6D6C2B15D03B6D6C2B5E
:1019E0001CDC3B6D4C2B0FD03B6D682B16D17B68FC
:1019F0001BB2002B1CDA2D2387F847307B689BB283
:101A00005B429BB27B6013E07B68002B12DA2D23D4
:101A100087F847307B685B427B600BE07B68002B7C
:101A20000ADA2D2387F847307B685B427B6003E04E
:101A300000BF02E000BF00E000BF97F847302D2B49
:101A400010D0FB6D03F00403002B03D02B2387F889
:101A5000473007E0FB6D03F00803002B02D0202382
:101A600087F84730FB6D03F02003002B0FD03B6855
:101A7000022B02D03B68102B03D1FB6B023BFB63B4
:101A800005E03B68082B02D1FB6B013BFB630023A5
:101A90003B647B68002B1BD13B6C5A1C3A6407F1FA
:101AA00048021344302203F8382C14E03B1D3968F7
:101AB0001846FFF709FF03461A463B6B1A443B6C76
:101AC000591C3964127807F148010B4403F8382C8B
:101AD0007B68002BEAD13A6CBB6D9A4201DD3B6C0E
:101AE000BB65FA6BBB6DD31AFB63FB6D03F011038F
:101AF000002B19D197F84730002B10D0FB6B002B2F
:101B00000DDDFB6B013BFB6309E0FA68BB689A42A1
:101B100002D2FB6820221A70FB680133FB60FB6B6A
:101B20005A1EFA63002BF0DC97F84730002B0DD0DB
:101B3000FA68BB689A4203D2FB6897F847201A708C
:101B4000FB6B013BFB63FB680133FB60FB6D03F048
:101B50002003002B43D03B68022B14D1FA68BB68EA
:101B60009A4202D2FB6830221A70FB680133FB6094
:101B7000FA68BB689A4202D2FB6862221A70FB685C
:101B80000133FB602BE03B68082B0AD1FA68BB6885
:101B90009A4202D2FB6830221A70FB680133FB6064
:101BA0001DE03B68102B1AD1FA68BB689A4202D23A
:101BB000FB6830221A70FB680133FB60FA68BB686F
:101BC0009A4209D2FB6D03F04003002B01D058224A
:101BD00000E07822FB681A70FB680133FB60FB6D44
:101BE00003F01003002B20D10FE000BF60CD0002F6
:101BF00074CD0002FA68BB689A4203D2FB6897F87A
:101C00003B201A70FB680133FB60FB6B5A1EFA63C2
:101C1000002BEFDC09E0FA68BB689A4202D2FB684D
:101C200030221A70FB680133FB60BB6D5A1EBA6527
:101C30003A6C9A42EFDB0DE0FA68BB689A4206D232
:101C400007F110023B6C13441A78FB681A70FB68AA
:101C50000133FB603B6C5A1E3A64002B0DDD7B6B3D
:101C6000002BE9D109E0FA68BB689A4202D2FB680E
:101C700020221A70FB680133FB60FB6B5A1EFA636B
:101C8000002BF0DCFB6818464837BD4680BD00BF1E
:101C900080B592B004AFF860B9607A603B60002311
:101CA0007B6300233B630023FB620023BB620023B2
:101CB0007B620023FB7400233B620023FB7700233D
:101CC000BB7700237B770023BB6100237B61FB682C
:101CD000BB62FA68BB6813447B627A6AFB689A420B
:101CE00080F087824FF0FF337B627A6AFB68D31AF9
:101CF000BB607EE27B681B78252B0BD0BA6A7B6ABF
:101D00009A4203D27B681A78BB6A1A70BB6A0133A5
:101D1000BB626BE20023BB777B6801337B607B682F
:101D20001B782D2B04D1BB7F43F01003BB77F3E767
:101D30007B681B782B2B04D1BB7F43F00403BB775C
:101D4000EAE77B681B78202B04D1BB7F43F00803B4
:101D5000BB77E1E77B681B78232B04D1BB7F43F083
:101D60002003BB77D8E77B681B78302B04D1BB7F7F
:101D700043F00103BB77CFE700BF4FF0FF33BB61F8
:101D80007B681B78303B092B05D83B1D1846FFF7B5
:101D9000B7FDB86115E07B681B782A2B11D17B68F1
:101DA00001337B603B681A1D3A601B68BB61BB69ED
:101DB000002B06DABB695B42BB61BB7F43F01003BB
:101DC000BB774FF0FF337B617B681B782E2B1ED1D6
:101DD0007B6801337B607B681B78303B092B05D81F
:101DE0003B1D1846FFF78CFD78610BE07B681B7884
:101DF0002A2B07D17B6801337B603B681A1D3A6050
:101E00001B687B617B69002B01DA00237B61002367
:101E10007B777B681B78682B03D07B681B786C2BE7
:101E200005D17B681B787B777B6801337B600A2355
:101E3000FB777B681B78253B532B00F2888101A23E
:101E400052F823F0152100024F2100024F21000219
:101E50004F2100024F2100024F2100024F210002BA
:101E60004F2100024F2100024F2100024F210002AA
:101E70004F2100024F2100024F2100024F2100029A
:101E80004F2100024F2100024F2100024F2100028A
:101E90004F2100024F2100024F2100024F2100027A
:101EA0004F2100024F2100024F2100024F2100026A
:101EB0004F2100024F2100024F2100024F2100025A
:101EC0004F2100024F2100024F2100024F2100024A
:101ED0004F2100024F2100024F2100024F2100023A
:101EE0004F2100024F2100024F2100024F2100022A
:101EF0004F2100024F2100024F2100024F2100021A
:101F00004F2100024F2100024F2100024F21000209
:101F1000372100024F2100024F2100024F21000211
:101F20004F2100024F2100024F2100024F210002E9
:101F30004F2100024F2100022B210002951F0002B9
:101F4000452100024F2100024F2100024F210002D3
:101F50004F210002452100024F2100024F210002C3
:101F60004F2100024F2100024F21000231210002C7
:101F7000C92000024F2100024F210002032000026D
:101F80004F2100028B2100024F2100024F2100024D
:101F90003F210002BB7F03F01003002B10D109E0AA
:101FA000BA6A7B6A9A4202D2BB6A20221A70BB6A62
:101FB0000133BB62BB69013BBB61BB69002BEFDC3A
:101FC0003B681A1D3A601B68FB74BA6A7B6A9A42C6
:101FD00002D2BB6AFA7C1A70BB6A0133BB6209E0A9
:101FE000BA6A7B6A9A4202D2BB6A20221A70BB6A22
:101FF0000133BB62BB69013BBB61BB69002BEFDCFA
:10200000F4E03B681A1D3A601B683B623B6A002B98
:1020100001D1854B3B620023FB6202E0FB6A013386
:10202000FB62FA6ABB699A4205D0FB6A3A6A1344BA
:102030001B78002BF2D17B69002B05DDFA6A7B69E6
:102040009A4201DD7B69FB62BB7F03F01003002B2A
:1020500010D109E0BA6A7B6A9A4202D2BB6A202296
:102060001A70BB6A0133BB62BB695A1EBA61FA6A55
:102070009A42EFDB00233B6310E0BA6A7B6A9A4224
:1020800003D23B6A1A78BB6A1A70BB6A0133BB621F
:102090003B6A01333B623B6B01333B633A6BFB6A48
:1020A0009A42EADB09E0BA6A7B6A9A4202D2BB6AC8
:1020B00020221A70BB6A0133BB62BB695A1EBA6127
:1020C000FA6A9A42EFDB91E0BB69B3F1FF3F0CD1B2
:1020D0000823BB61BB690233BB61BB7F43F02003B4
:1020E000BB77BB7F43F00103BB773B681A1D3A60A7
:1020F0001B6819467B7FBA7F03927A690292BA699C
:102100000192009310230A46796AB86AFFF71CFC13
:10211000B8626BE0BA6A7B6A9A4202D2BB6A252235
:102120001A70BB6A0133BB6260E00223FB772DE0CB
:102130000823FB772AE0BB7F43F04003BB771023E3
:10214000FB7723E0BB7F43F00203BB771DE0BA6A55
:102150007B6A9A4202D2BB6A25221A70BB6A01339B
:10216000BB627B681B78002B0BD0BA6A7B6A9A42F1
:1021700003D27B681A78BB6A1A70BB6A0133BB62F0
:1021800034E07B68013B7B6030E000BF7B7F6C2BE1
:1021900005D13B681A1D3A601B687B6316E07B7FA4
:1021A000682B0ED13B681A1D3A601B689BB27B639B
:1021B000BB7F03F00203002B08D07B6B1BB27B6359
:1021C00004E03B681A1D3A601B687B63F97F7B7FE4
:1021D000BA7F03927A690292BA69019200930B4620
:1021E0007A6B796AB86AFFF7AFFBB8627B68013334
:1021F0007B607B681B78002B7FF47CADBB68002B79
:102200000BD0BA6A7B6A9A4203D2BB6A00221A7068
:1022100003E07B6A013B00221A70BA6AFB68D31A9A
:1022200018463837BD4680BDF0CC00020CB480B5EE
:1022300084B000AF786039600023FB6007F11C03B5
:10224000BB60BB68BA6939687868FFF721FDF86040
:10225000FB6818461037BD46BDE8804002B07047A5
:1022600080B400AF034B1B681846BD465DF8047B85
:10227000704700BF1808002280B584B000AF7860B6
:10228000124B1B68FB60786806F06DFFB860BA6897
:10229000FB689A4201D1002313E0BB68002B0FD0EA
:1022A0000A4B1B68002B04D0084B1B68184607F02C
:1022B0000FF84321B86806F063FF044ABB68136057
:1022C000FB6818461037BD4680BD00BF18080022C5
:1022D00080B483B000AF786000BF0C37BD465DF8B6
:1022E000047B70470FB480B582B000AF00237B60E1
:1022F00007F114033B603B683A697F211048FFF700
:10230000C7FC03467B607B687F2B01D97F237B6002
:102310000C4B1B68002B03D10948FFF7D9FF06E0DF
:10232000084B18687B68064A002107F063F87B6851
:1023300018460837BD46BDE8804004B0704700BF6E
:10234000C80800221808002280B500AF0122034906
:102350000348FEF7FFFC00BF80BD00BFF8CC0002C1
:102360002408002280B500AF01F01EFA0346002BBE
:1023700006D04FF0FF310448FEF70AFF034600E0A5
:102380000023184680BD00BF2408002280B582B01B
:1023900000AF78607B68002B05D040F249620849A5
:1023A000084800F0A1F801F0FFF90346002B02D025
:1023B0000548FEF7FDFE00BF0837BD4680BD00BFE3
:1023C0009CCD000200CD00022408002280B584B01C
:1023D00000AF786039607B68073323F00703FB6048
:1023E0003B6823F00703BB60BA68FB689A4205D8D4
:1023F00040F2AA620849094800F076F8BA68FB681A
:10240000D31A7A680649074800F094F8FFF79CFF52
:1024100000BF1037BD4680BD88CD000210CD000240
:10242000F8CC00025408002280B584B000AF786078
:10243000FFF798FFF86079680A4800F005FBB8607C
:10244000F868FFF7A3FF084B1B68002B04D0064B6E
:102450001B687968B8689847BB6818461037BD464E
:1024600080BD00BF540800221C08002280B584B043
:1024700000AF786039607B683A6802FB03F3184666
:10248000FFF7D2FFF860FB68002B08D07B683A6842
:1024900002FB03F31A460021F868FFF745F8FB68D2
:1024A00018461037BD4680BD80B584B000AF786057
:1024B0000C4B1B68002B03D00A4B1B6878689847AD
:1024C0007B68002B09D0FFF74DFFF860786800F0BB
:1024D000FFFAF868FFF75AFF00E000BF1037BD466B
:1024E00080BD00BF2008002280B586B000AFF86034
:1024F000B9607A600023FB750C4B1B68002B0BD175
:102500007B68BA68F9680A48FFF7ECFE00BFFB7DFC
:10251000DBB2002BFBD005E0044B1B687A68B9687E
:10252000F868984700BF1837BD4680BDC408002230
:1025300028CD000280B586B000AFF860B9607A603F
:102540003B60FB68002B04D1562248494848FFF7FE
:10255000CBFFFB68BA680721184600F01DFBFB683B
:102560007A689A613B6823F00702FB68DA61FB68CE
:10257000DB69A3F13002FB681A62FB68DA69FB6869
:102580001B6AD21AFB685A62FB6830337B617B6935
:10259000384A1A607B69FA685A607B6900229A603F
:1025A0007B690022DA607B697A691A617B697A69E2
:1025B0005A61FB687A69DA627B687B617B692D4AC4
:1025C0001A607B69FA685A607B6900229A607B69AD
:1025D0000022DA607B697A691A617B697A695A61DB
:1025E000FB681B6A18337A691A447B699A607B69B5
:1025F0009A687B69DA60FB687A699A62FB68DB6AD1
:102600001A697B691A61FB68DA6A7B695A61FB683F
:10261000DB6A1B697A695A61FB68DB6A7A691A614D
:102620007B699B687B617B69134A1A607B69FA68E6
:102630005A607B697A689A607B697A68DA607B693C
:1026400000225A617B695A697B691A61FB6803F150
:10265000480001230122B968FEF71CF9FB6800223B
:10266000DA66002318461837BD4680BD00CF000249
:10267000ACCD0002A01EA01EA11EA01E80B586B07B
:1026800000AF786039607B68002B04D1C1227949A2
:102690007948FFF729FF7B68184600F0D5FB034611
:1026A000072B04D0C22273497448FFF71DFF3B6813
:1026B000073323F007033B603B680F2B01D810233F
:1026C0003B607B681B6A3A689A4280F0CE800023A8
:1026D0007B617B68DB6E002B0FD17B6848334FF04A
:1026E000FF311846FEF706FAF860FB68002B04D0AD
:1026F000F868FEF7DBFE0023B8E07B68DB6A1B6945
:102700003B610DE03B699B681A463B69D31A183B55
:102710007B617A693B689A4202D23B691B693B61E3
:102720007B68DB6A3A699A4203D07A693B689A42CD
:10273000E8D37A693B689A42C0F08E803B682833C0
:102740007A699A4253D33B6818333A691344BB60A1
:10275000BB684B4A1A60BB687A685A60BB683A69C2
:10276000DA603B699A68BB689A603B699B68BA68A3
:10277000DA603B69BA689A603B691B693A695269D9
:102780005A613B695B693A6912691A613B690022C7
:102790001A613B6900225A617B68DB6A1A69BB686F
:1027A0001A617B68DA6ABB685A617B68DB6A1B69FD
:1027B000BA685A617B68DB6ABA681A617B681A6A10
:1027C0003B68D31AA3F118027B681A627B68DA6946
:1027D0007B681B6AD21A7B685B6A9A422DD97B6838
:1027E000DA697B681B6AD21A7B685A6225E07B68CB
:1027F0001A6A7B69D21A7B681A627B68DA697B681D
:102800001B6AD21A7B685B6A9A4206D97B68DA69CE
:102810007B681B6AD21A7B685A623B691B693A69FA
:1028200052695A613B695B693A6912691A613B698D
:1028300000221A613B6900225A613B69114A1A6001
:102840007B68DB6E002B04D17B6848331846FEF7AB
:1028500061F93B69183309E07B68DB6E002B04D11A
:102860007B6848331846FEF755F900231846183799
:10287000BD4680BD10CF000234CE0002C8CD00029C
:10288000A01EA01EA11EA01E80B588B000AF78605B
:102890007B68002B00F0C5800123BB6100237B61B6
:1028A0007B68183BFB61FB691B68604A934207D158
:1028B000FB699B681B6823F001035D4A934218D0B3
:1028C000FB691B68594A934205D040F26B22594973
:1028D0005948FFF709FEFB699B681B6823F0010359
:1028E000534A934205D040F26D2252495348FFF7B4
:1028F000FBFDFB695B683B613B69002B05D140F246
:1029000073224C494E48FFF7EFFD3B69184600F033
:102910009BFA0346072B05D04FF41D7245494948E1
:10292000FFF7E2FD3B69DB6E002B0ED13B694833BC
:102930004FF0FF311846FEF7DDF8F860FB68002B1A
:1029400003D0F868FEF7B2FD6CE0FB69384A1A6004
:102950003B691A6AFB699B681946FB69CB1A1344E9
:10296000A3F118023B691A62FB69DB681B6803F07C
:102970000103002B14D13B691B6A03F118023B6968
:102980001A62FB69DB68FA6992689A60FB699B6866
:10299000FA69D268DA60FB69DB68FB610023BB611E
:1029A000FB699B681B6803F00103002B1AD13B698C
:1029B0001B6A03F118023B691A62FB699B687B6121
:1029C0007B699B68FA69DA607B699A68FB699A603F
:1029D0007B691B697A6952695A617B695B697A69AB
:1029E00012691A61BB69002B11D03B69DB6A1B6954
:1029F000BB60FB69BA681A61BB685A69FB695A61B6
:102A0000BB685B69FA691A61BB68FA695A613B691C
:102A1000DB6E002B06D13B6948331846FEF77AF887
:102A200000E000BF2037BD4680BD00BFA11EA01E34
:102A3000A01EA01E24CF00026CCE0002A8CE000271
:102A4000C0CD0002C8CD000280B588B000AF78606C
:102A5000396039687868FFF711FEF861FB69002B6F
:102A60002DD1072000F074F878617B69002B05D127
:102A700040F2153214491548FFF736FD7B695B6853
:102A8000BB6115E0BB69103B3B613B69FB607A6849
:102A9000FB689A4208D03968F868FFF7EFFDF861E3
:102AA000FB69002B0AD100E000BFBB691B68BB615A
:102AB0007B690433BA699A42E4D100E000BFFB6944
:102AC00018462037BD4680BD34CF0002E8CE000254
:102AD00080B582B000AF78607868FFF7D5FE00BFA0
:102AE0000837BD4680BD80B483B000AF78603960E0
:102AF0007B681B683A685A607B681A683B681A6092
:102B00007B683A681A603B687A685A6000BF0C3785
:102B1000BD465DF8047B704780B483B000AF786039
:102B20007B681B687A6852685A607B685B687A6861
:102B300012681A607B687A685A607B685A687B689A
:102B40001A6000BF0C37BD465DF8047B7047FFFF7D
:102B500080B485B000AF0346FB710023FB600FE03B
:102B60000C4AFB681B0113441B78FA799A4204D182
:102B7000FB681B01074A134406E0FB680133FB6056
:102B8000FB680B2BECDD002318461437BD465DF8BF
:102B9000047B70478000002280B588B000AFF860E9
:102BA0000B467A60FB720023FB61FB7A1846FFF745
:102BB000CFFFB861BB69002B05D14FF4B772234931
:102BC0002348FFF791FC00F043FCBB695B68FB61A5
:102BD0000FE0FB69103B3B613A69FB689A4205D103
:102BE00040F27D1219491B48FFF77EFCFB691B6808
:102BF000FB61BB690433FA699A42EAD100F040FCF8
:102C0000FB7A63F07F03DAB2FB681A73FB680C226D
:102C100079681846FEF79AFD0F4B1B68002B03D00E
:102C20000D4B1B68F868984701F048FE7861BB6956
:102C30001A1DFB68103319461046FFF754FF7869D8
:102C400001F040FE00BF2037BD4680BDD8CF000256
:102C500044CF00025CCF00024809002280B584B056
:102C600000AF78607B68002B05D140F2AD120F49B0
:102C70000F48FFF739FC0F4B1B68002B03D00D4B9F
:102C80001B68786898477B6800221A7301F016FE6B
:102C9000F8607B6810331846FFF73EFFF86801F0D4
:102CA00011FE00BF1037BD4680BD00BFE8CF000257
:102CB0006CCF00024C09002280B586B000AF0346FD
:102CC0003960FB7101F0FAFD7861FEF7A7FB03465E
:102CD000002B09D029492A48FFF704FB40F2D11202
:102CE00026492848FFF700FC786901F0EBFDFB79E5
:102CF0001846FFF72DFF38613B69002B05D140F2E4
:102D0000D5121E492048FFF7EFFB3B69DB681846E8
:102D1000FFF78AFBF860FB68002B01D1002329E054
:102D20003B69DB681A460021F868FEF7FDFBFB688B
:102D3000FA791A73FB6800225A73FB680C2239680F
:102D40001846FEF703FD114B1B68002B03D00F4BF9
:102D50001B68F868984701F0B1FDB8603B691A1D1F
:102D6000FB68103319461046FFF7BDFEB86801F046
:102D7000A9FDFB6818461837BD4680BDFCCF000290
:102D800080CF0002A8CF000244CF000248090022F1
:102D900080B584B000AF78607B68002B05D140F22D
:102DA000122216491648FFF79FFB7B681B7B5BB21C
:102DB000002B05DA40F2132210491248FFF794FB6A
:102DC000114B1B68002B03D00F4B1B68786898478A
:102DD0007B6800221A7301F071FDF8607B68103384
:102DE0001846FFF799FEF86801F06CFD7868FFF768
:102DF0005BFB00BF1037BD4680BD00BF10D0000296
:102E00006CCF0002ACCF00024C09002280B582B02A
:102E100000AF78607B68002B05D140F2352208496D
:102E20000848FFF761FB7B681B7B5BB2002B01DA74
:102E3000012300E0002318460837BD4680BD00BFCF
:102E400024D000026CCF000280B582B000AF786061
:102E50007B68002B05D14FF4127206490648FFF734
:102E600043FB7B681B7B03F07F03DBB2184608370C
:102E7000BD4680BD40D000026CCF000280B586B058
:102E800000AF78600B46FB7000233B6100237B6141
:102E90000023FB60FB781846FFF75AFEF8607B685A
:102EA000002B02D0FB68002B01D1002335E001F09C
:102EB00005FDB860FEF7B2FA0346002B09D01949A8
:102EC0001948FFF70FFA40F2662216491748FFF734
:102ED0000BFBB86801F0F6FC00F0BAFAFB685B681F
:102EE0007B6112E07B69103B3B613B690C22796896
:102EF0001846FEF75DFC0346002B03D100F0C0FA34
:102F00003B690AE07B691B687B61FB6804337A6973
:102F10009A42E7D100F0B4FA002318461837BD46AC
:102F200080BD00BF54D0000280CF0002A8CF0002B5
:102F300080B483B000AF78607B687A685A607B6841
:102F40005A687B681A6000BF0C37BD465DF8047B89
:102F5000704780B483B000AF786039607B681B68CD
:102F60003A685A607B681A683B681A607B683A68FE
:102F70001A603B687A685A6000BF0C37BD465DF83E
:102F8000047B704780B483B000AF786039607B68A1
:102F90005B683A681A607B685A683B685A607B686D
:102FA0003A685A603B687A681A6000BF0C37BD46C1
:102FB0005DF8047B704780B483B000AF78607B68B5
:102FC0001B687A6852685A607B685B687A68126826
:102FD0001A607B687A685A607B685A687B681A60F6
:102FE00000BF0C37BD465DF8047B704780B483B0EA
:102FF00000AF78607B681B687A689A420CBF012337
:103000000023DBB218460C37BD465DF8047B7047E1
:1030100080B584B000AF78607B68002B04D1622259
:103020001C491D48FFF760FA7B68DB6A1B78232B7D
:1030300011D17B681B6A1A467B68DB6A9A420AD9FF
:103040007B681B6A1A467B68DB6A19467B681B6BC8
:103050000B449A420BD97B6819461048FFF742F996
:1030600001F02CFCF860FB68002BFCD10DE07B68C4
:103070001B6A1A467B68DB6A20339A4205D87B6854
:1030800019460748FFF72EF9FFE700BF1037BD4686
:1030900080BD00BFCCD0000264D0000278D0000216
:1030A00094D0000280B584B000AF78600A4B1B68F2
:1030B000184601F020FF0346013BFB60074AFB680E
:1030C00052F83330183BBB607B68FA681A60BB6803
:1030D00018461037BD4680BD5C0A00225C090022FC
:1030E00080B582B000AF0D4B00221A8000237B60B8
:1030F00009E07B68DB000A4A13441846FFF718FF13
:103100007B6801337B607B681F2BF2DD054B00225F
:103110001A6000BF0837BD4680BD00BF600A0022AC
:103120005C0900225C0A002280B582B000AF3B46F9
:103130001846FFF7B7FF7860094A7B681360786824
:1031400000F04EF97B68032283F838207B68203337
:10315000184601F005FC00BF0837BD4680BD00BF22
:10316000640A002280B586B000AF01F0A7FBF860CA
:103170005F4BB3F90030002B40F0B2805D4B1B6811
:10318000002B00F0AD8000233B613B1D1846FFF78C
:1031900089FF7861584B1B6893F8383003F00703B8
:1031A000032B21D1544B1B6893F839301A467B68A6
:1031B0009A4203D2504B1B687B6115E04E4B1B6853
:1031C00093F839301A467B689A420BD14A4B1B68F8
:1031D00093F8383003F00803002B03D1464B1B68EB
:1031E0007B6101E001233B61434B1B687A699A4292
:1031F00061D07B68DAB2414B1A703F4B1B68BB60F1
:103200003D4A7B6913603E4B1B68002B04D03C4B4E
:103210001B687969B86898473B69002B02D0B86889
:1032200000F074F8BB6893F8383003F00803002B03
:1032300008D0BB6893F8383023F00803DAB2BB68D3
:1032400083F83820786900F0CBF87B6993F8383040
:103250005BB223F007035BB243F003035BB2DAB265
:103260007B6983F838207869FFF7D2FE254B1B78FD
:10327000DBB2002B14D1244B1B68002B03D0224B54
:103280001B68B8689847BB6820331A467B692033AF
:103290001946104601F019FBF86801F013FB23E012
:1032A000BB68203318467B69203319467B69BA68AE
:1032B00001F00BFB14E0104B1B68184600F090F86F
:1032C0000D4B1B6893F838305BB223F007035BB2F9
:1032D00043F003035AB2084B1B68D2B283F838207C
:1032E000F86801F0EFFA00BF1837BD4680BD00BF97
:1032F000600A00225C0A0022640A0022680A002296
:103300006C0A002210080022700A002280B584B0E6
:1033100000AF78607B68002B05D14FF4B7722B4962
:103320002B48FFF7E1F801F0C9FAF860294B1B6858
:103330007A689A420ED17B6893F838305BB223F0FA
:1033400007035BB243F003035BB2DAB27B6883F836
:10335000382034E07B6893F838305BB223F0070301
:103360005BB243F002035BB2DAB27B6883F83820C9
:103370007B6893F8383003F00803002B0CD07B688F
:1033800093F83930DB00144A1A447B681833194625
:103390001046FFF7F7FD0BE07B6893F83930DB0050
:1033A0000D4A1A447B68183319461046FFF7D1FDC1
:1033B0007B68DA6B094B1B681343084A1360F86893
:1033C00001F080FA00BF1037BD4680BDE4D0000296
:1033D00064D00002640A00225C0900225C0A002218
:1033E00080B584B000AF78607B68002B05D14FF4C6
:1033F000D17213491348FFF777F801F05FFAF860CC
:103400007B6818331846FFF7D6FD7B6893F8393090
:10341000DB000D4A13441846FFF7E8FD0346002B76
:1034200007D07B68DB6BDA43084B1B681340074A05
:103430001360F86801F046FA00BF1037BD4680BD42
:1034400000D1000264D000025C0900225C0A002264
:1034500080B582B000AF01F031FA7860074BB3F964
:1034600000309BB201339BB21AB2044B1A807868C9
:1034700001F028FA00BF0837BD4680BD600A00226F
:1034800080B582B000AF01F019FA7860104BB3F943
:1034900000309BB2013B9BB21AB20D4B1A800C4B11
:1034A000B3F90030002B0CDC094B00221A8078683D
:1034B00001F008FA074B1B68002B05D0FFF752FEFE
:1034C00002E0786801F0FEF900BF0837BD4680BD14
:1034D000600A0022640A002280B400AF044BB3F9F2
:1034E00000309BB21846BD465DF8047B704700BFB4
:1034F000600A002280B483B000AF78607B687A688D
:103500005A607B685A687B681A6000BF0C37BD46FA
:103510005DF8047B704780B483B000AF78607B684F
:103520001B687A6852685A607B685B687A681268C0
:103530001A607B687A685A607B685A687B681A6090
:1035400000BF0C37BD465DF8047B704780B582B084
:1035500000AF00F029F9786001F0B0F938607868C0
:10356000FFF73EFF7B685C33184600F0DBFD7B68AD
:10357000012283F838207868FCF7DCFF386801F016
:10358000A1F9FFF7EFFD00BF0837BD4680BDFFFF83
:1035900080B584B000AF78607B68FB60FB68002B6F
:1035A00004D18B2219491A48FEF79EFFFB6893F855
:1035B000383003F00403002B04D18C221349154842
:1035C000FEF792FFF868FFF73FFC0346012B04D09B
:1035D0008D220E491048FEF787FF01F06FF9B860A1
:1035E000FB686FF073025A63FB6818331846FFF7E5
:1035F00092FFF868FFF78AFEB86801F063F9FFF7F9
:10360000B1FD00BF1037BD4680BD00BF7CD30002B6
:103610001CD1000230D1000274D1000280B586B006
:1036200002AFF860B9607A603B60FB6818331846F7
:10363000FFF760FFFB687A685A62FB683A689A6233
:10364000FB68BA69DA62FB68FA691A63FB68D86AD0
:10365000FB681B6B1A462321FDF766FFFB68586A5F
:10366000FB68996AFB68DA6AFB681B6B043B1A44C7
:103670002C4B01F0C9F90246FB681A6297F820301A
:103680001F2B04D9C62228492848FEF72DFFFB68C6
:1036900097F8202083F83A20FB6897F8202083F8D9
:1036A0003920FB680022DA63FB6840331846FFF7D5
:1036B00021FFFB6800229A64FB680022DA64FB6841
:1036C000002283F85020FB687A6A5A65FB687A6AA0
:1036D0009A65FB6800225A63FB68002283F8382051
:1036E000FB680022C3F88C20FB680022C3F89020FE
:1036F000FB6803F15C00F968002301930023009349
:10370000FB680B4A00F0D0FC0A4B1B68002B03D06F
:10371000084B1B68F8689847002318461037BD46C9
:1037200080BD00BF4D3500028CD30002B8D100022D
:10373000913500027C0A002280B588B004AFF860A1
:10374000B9607A603B60FB68002B05D14FF4A5722D
:1037500012491348FEF7C8FEBB69002B05D140F2A1
:103760004B120E490F48FEF7BFFEBA680121F868F8
:10377000FFF712FA7B6A039397F820300293FB69F4
:103780000193BB6900933B687A68B968F868FFF7F2
:1037900045FF034618461037BD4680BD9CD3000246
:1037A0001CD10002DCD1000280B400AF034B1B68C7
:1037B0001846BD465DF8047B704700BF640A0022CE
:1037C00080B582B000AF78607B68002B05D140F2F5
:1037D0007D121C491C48FEF787FE7B6893F8383041
:1037E00003F00703002B05D04FF4BF7215491748AB
:1037F000FEF77AFE7868FFF727FB0346012B05D01A
:1038000040F27F120F491248FEF76EFE7B6893F874
:1038100039301A46012393401A467B68DA637B6885
:10382000042283F83820786800F028FBFFF7BCFFFB
:103830000346002B01D0FFF795FC002318460837FC
:10384000BD4680BDACD300021CD10002F4D1000201
:1038500074D1000280B584B000AF78607B68002B23
:1038600005D14FF4D4722E492E48FEF73DFE7868FC
:10387000FFF7EAFA0346012B05D040F2A9122849C6
:103880002948FEF731FE7868FFF7C0FA0346002B9F
:1038900005D14FF4D57222492448FEF725FE7B68F6
:1038A00093F8383003F00703012B01D1002332E0F5
:1038B0007B6893F8383003F00703002B02D0786858
:1038C000FFF78EFD00F0FAFFF8607B685C33184666
:1038D00000F028FC7B68012283F838207B689B6C11
:1038E000002B11D07B689B6C1846FFF7ADFA03469E
:1038F000032B09D17B689B6CBB607968B868FDF7C6
:1039000063FA7B6800229A647868FCF713FEF86813
:1039100000F0D8FF002318461037BD4680BD00BF19
:10392000C0D300021CD1000274D100022CD20002CC
:1039300080B58AB004AFF860B9607A603B60F9681E
:103940000120FFF7B9F978617B69002B01D10023D1
:103950001BE03868FEF768FD38613B69002B04D135
:103960007869FFF715FA00230FE07B6A039397F855
:10397000203002933B6801933B6900937B68BA68EF
:10398000F9687869FFF74AFE7B6918461837BD4623
:1039900080BDFFFF80B584B000AF78607B68002BEE
:1039A00005D140F219222E492E48FEF79DFD786878
:1039B000FFF74AFA0346012B05D040F21A222849A4
:1039C0002948FEF791FD7868FFF720FA0346002B9F
:1039D00005D040F21B2222492448FEF785FD7B6872
:1039E00093F8383003F00703012B01D1002332E0B4
:1039F0007B6893F8383003F00703002B02D0786817
:103A0000FFF7EEFC00F05AFFF8607B685C33184665
:103A100000F088FB7B68012283F838207B689B6C70
:103A2000002B11D07B689B6C1846FFF70DFA0346FC
:103A3000032B09D17B689B6CBB607968B868FDF784
:103A4000C3F97B6800229A647868FCF773FDF86814
:103A500000F038FF002318461037BD4680BD00BF78
:103A6000D4D300021CD1000274D100025CD2000247
:103A700080B58AB000AF78607B68002B02D16FF010
:103A8000150396E0FFF790FE78627B6A002B05D164
:103A900040F2722249494A48FEF726FD786AFFF74C
:103AA000D3F90346012B05D040F273224349454820
:103AB000FEF71AFDFDF7C6FC386200F0FFFEF86164
:103AC000FFF70AFD0346002B09D03C493E48FEF7AC
:103AD00009FC40F2762239493C48FEF705FD3B6A75
:103AE000012B09D135493A48FEF7FCFB40F276221A
:103AF00032493648FEF7F8FC00F0E0FEB861FFF707
:103B000053FE0346002B09D12C493248FEF7EAFB4D
:103B100040F2762229492D48FEF7E6FC00F0CEFE61
:103B20007861FDF77BFC0346002B09D023492A4826
:103B3000FEF7D8FB40F2762220492448FEF7D4FC59
:103B4000786900F0BFFEB86900F0BCFEF86900F0CB
:103B5000B9FE00F0B3FE38617B6A00225A6300218F
:103B6000786A00F01DF9F860FB68002B1DD17B6AB4
:103B70005C333A1D0021184600F07CFC7B6A5C3304
:103B8000184600F017FB386900F09CFE7B6A6FF066
:103B900003025A63FFF7E6FA7B6A5B6B13F1740F5B
:103BA00006D17B6A00225A6302E0386900F08AFE7F
:103BB000FB6818462837BD4680BD00BFE8D3000229
:103BC0001CD1000274D1000298D20002C4D20002BB
:103BD000C8D20002F0D2000228D3000280B582B021
:103BE00000AF78607868FFF743FF03461846083750
:103BF000BD4680BD80B584B000AF78607868FCF7C2
:103C000083FBF860F868FFF733FF03461846103768
:103C1000BD4680BD80B586B000AFF860B9607A60FF
:103C2000FB68002B05D14FF4547237493748FEF733
:103C30005BFCF868FFF708F90346012B05D040F25A
:103C4000513231493248FEF74FFCBB68022B09D094
:103C5000BB68022B52DCBB68002B34D0BB68012B45
:103C600036D04BE000F02AFE3861FB6893F838301C
:103C700003F00703022B14D1F868FFF7B1FB7B6850
:103C80001A78FB6883F83920FB6893F839301A46B4
:103C9000012393401A46FB68DA63F868FFF736FBA6
:103CA0000DE07B681A78FB6883F83920FB6893F88D
:103CB00039301A46012393401A46FB68DA633869A3
:103CC00000F000FE1BE0F868FFF77AFD034617E0FE
:103CD0006FF015037B61F868FFF798F80346012B36
:103CE00004D1F868FFF7B6FD786103E0F868FFF7E4
:103CF00051FE7861FFF736FA7B6901E000BF0023CF
:103D000018461837BD4680BDF8D300021CD100020A
:103D100074D1000280B584B000AF786039600723A9
:103D2000FB737B68002B05D140F2B33219491A4866
:103D3000FEF7DAFB3B68022B0FD03B68022B0FDC4F
:103D40003B68002B03D03B68012B03D008E0042321
:103D5000FB730CE00623FB7309E00723FB7306E00B
:103D60004FF470720B490D48FEF7BEFB00BF7B6835
:103D700093F838305BB223F007035AB297F90F304B
:103D800013435BB2DAB27B6883F8382000BF103788
:103D9000BD4680BD0CD400021CD10002C4D200027A
:103DA00080B584B000AF786039607B68002B05D1A6
:103DB0004FF477722C492D48FEF796FB7868FFF791
:103DC00043F80346012B05D040F2DD32264928484E
:103DD000FEF78AFBFFF7E8FC02467B68934205D0BA
:103DE00040F2DE3220492348FEF77EFB7B6893F8E1
:103DF000383003F00703FB60FB68022B05D0FB683B
:103E0000032B02D06FF0FE0329E000F057FDB860ED
:103E1000FB68032B0BD1FFF7C7FC02467B6893427C
:103E200005D040F2EE3210491248FEF75DFB78688B
:103E3000FFF7D6FA39687868FFF76CFF7B685C3368
:103E4000184600F0CBFAB86800F03CFD0A4B1B683E
:103E5000002B03D0084B1B6878689847002318464E
:103E60001037BD4680BD00BF28D400021CD100021F
:103E700074D1000260D30002740A002280B584B0BD
:103E800000AF78607B68002B05D140F21B421D49D2
:103E90001D48FEF729FB7868FEF7D6FF0346012B85
:103EA00005D040F21C4217491848FEF71DFB7B68FD
:103EB00093F8383003F00403002B02D16FF0FE03B7
:103EC0001BE000F0FBFCF8607B6818331846FFF736
:103ED00022FB7B685C33184600F080FAF86800F03B
:103EE000F1FC7868FFF712FA094B1B68002B03D02E
:103EF000074B1B6878689847002318461037BD4663
:103F000080BD00BF44D400021CD1000274D1000265
:103F1000780A002280B483B000AF78607B687A684A
:103F20005A607B685A687B681A6000BF0C37BD46D0
:103F30005DF8047B704780B483B000AF786039606F
:103F40007B681B683A685A607B681A683B681A602D
:103F50007B683A681A603B687A685A6000BF0C3721
:103F6000BD465DF8047B704780B483B000AF7860D5
:103F70007B681B687A6852685A607B685B687A68FD
:103F800012681A607B687A685A607B685A687B6836
:103F90001A6000BF0C37BD465DF8047B704780B4E3
:103FA00083B000AF78607B681B687A689A420CBF68
:103FB00001230023DBB218460C37BD465DF8047BB5
:103FC000704780B586B000AFF860B9607A603B603A
:103FD000FB6897F820205A73FB685B7B23F0010392
:103FE000DAB2FB685A73FB68BA681A62FB687A68CF
:103FF0005A62FB680022DA62FB683A689A62002320
:104000007B610AE07B690333DB00FA6813441846DE
:10401000FFF780FF7B6901337B617B69002BF1DD5A
:1040200000BF00BF1837BD4680BD80B584B000AF6B
:104030007860396000F042FCF8607868FFF7AFFF05
:104040000346002B0CD17B681B68183BBB60BB6828
:10405000DA6A3B681A60F86800F034FC002304E078
:10406000F86800F02FFC6FF0FE0318461037BD46CD
:1040700080BD80B584B000AF78600023FB600AE0AB
:10408000FB680333DB007A6813441846FFF76CFFC4
:10409000FB680133FB60FB68002BF1DD00BF00BF54
:1040A0001037BD4680BDFFFF80B586B002AFF86017
:1040B000B9607A603B60FB68002B05D14FF48A72CF
:1040C00014491548FEF710FA7B68002B05D140F221
:1040D000151210491148FEF707FABB696FF000424C
:1040E000934205D34FF48B720A490D48FEF7FCF951
:1040F000FB68BA680A211846FEF74EFD3B7F009325
:10410000BB693A687968F868FFF75BFF00BF103752
:10411000BD4680BD68D5000258D400026CD40002B0
:1041200080D4000280B584B000AF78607B68002B3B
:1041300005D140F22B121B491B48FEF7D5F97B68CD
:104140001846FEF781FE03460A2B05D04FF49672FF
:1041500014491648FEF7C8F97B681846FEF756FE64
:104160000346002B05D140F22D120E491048FEF7F0
:10417000BBF900F0A3FBF8607868FFF77AFF7B6873
:104180005B7B23F00103DAB27B685A73F86800F0B6
:1041900099FB7B681846FEF761FD0023184610372F
:1041A000BD4680BD78D5000258D4000298D40002E4
:1041B000D4D4000280B58AB000AF78607B68002B51
:1041C00005D14FF4D3727C497C48FEF78DF97B68AA
:1041D0001846FEF739FE03460A2B05D040F2A71217
:1041E00075497748FEF780F90023FB6100F066FB14
:1041F00078617868FFF73DFF7B685B7B23F0010304
:10420000DAB27B685A736F4B1B68002B04D06D4B7E
:104210001B687A6810469847FCF72CF802467B68C2
:104220009B6A1A447B68DA627B685B7B03F0040359
:10423000002B02D0644B3B6201E0644B3B623B6A63
:10424000BB6000237B6255E07B6A9B0007F128027C
:10425000134453F8203C1B683B617B6ADB00183336
:104260005B423A691344FB60FB68DA6A7B68DB6A8D
:104270009A4209D0FB68DA6A7B68DB6AD31A6FF06E
:10428000004293421FD300E000BF7B6A9B0007F10E
:104290002802134453F8203C1A687B6A9B0007F1FC
:1042A00028010B4443F8202C7B6A9B0007F128026D
:1042B000134453F8202C7B6ADB00396A0B445B689B
:1042C0009A42C1D100E000BF7B6A002B0FD07B6A0D
:1042D0009B0007F12802134453F8202C7B6A01331A
:1042E00008329B0007F128010B4443F8202C7B6A1D
:1042F00001337B627B6A002BD6D0354B1B680133C0
:10430000334A1360324B1B68BB61BA687B68183351
:1043100019461046FFF70FFE02237B621DE0BB69C2
:1043200003F00303002B1CD17B6AC3F101039B0044
:1043300007F12802134453F8200C7B6AC3F10103F0
:104340000333DB007A6813441946FFF7F4FDBB69B9
:104350009B08BB617B6A01337B627B6A012BDED9E0
:1043600000E000BF7B685B7B43F00103DAB27B684F
:104370005A737B685B7B03F00403002B0FD0154B53
:104380001B78012B0BD1144B93F8383003F0040346
:10439000002B04D01048FFF771FD0123FB61786901
:1043A00000F090FAFB69002B01D0FEF7DBFE002342
:1043B00018462837BD4680BD88D5000258D4000273
:1043C00098D4000254090022880A0022800A0022A0
:1043D000300D002240010022900A002280B584B0F6
:1043E00000AF786000F06AFAF8607B68002B05D1B6
:1043F00040F221221B491C48FEF776F87B681846DC
:10440000FEF722FD03460A2B05D040F22222154971
:104410001648FEF769F87B685B7B03F00103002B0D
:1044200005D1F86800F04EFA6FF0FE0316E0104B6D
:104430001B68002B04D00E4B1B687A681046984707
:104440007868FFF716FE7B685B7B23F00103DAB226
:104450007B685A73F86800F035FA00231846103765
:10446000BD4680BD98D5000258D4000298D4000201
:104470005809002280B586B000AFF860B9607A6054
:10448000FB68002B05D140F2452241494148FEF727
:104490002BF8FB681846FEF7D7FC03460A2B05D01D
:1044A00040F246223A493C48FEF71EF800F006FA70
:1044B0007861BB68092B62D801A252F823F000BFD3
:1044C000F3440002E94400021545000225450002BC
:1044D00035450002514500025B450002654500027A
:1044E0006D45000277450002FB689A6A7B681A6096
:1044F00046E07B681B686FF00042934205D34FF49F
:10450000147223492548FDF7EFFF7B681A68FB68A2
:104510009A6235E0FB685B7B23F00203DAB2FB684A
:104520005A732DE0FB685B7B43F00203DAB2FB6851
:104530005A7325E0FB685B7B03F00103002B03D07B
:104540007B6801221A601BE07B6800221A6017E07A
:10455000FB68DA6A7B681A6012E0FB681A6A7B689B
:104560001A600DE07A68FB681A6209E0FB685A6A13
:104570007B681A6004E0FB687A685A6200E000BF5A
:10458000786900F09FF9002318461837BD4680BDB2
:10459000A8D5000258D4000298D4000238D50002F1
:1045A00080B586B000AF3B1D1846FFF7B3FCFBF7A4
:1045B00061FE786100F082F938615FE0374B1B687B
:1045C000183BFB60FB68DB6A7A69D31A6FF0004224
:1045D00093425AD2324B1B68002B03D0304B1B68DE
:1045E000F8689847F868FFF744FDFB685B7B03F0C9
:1045F0000203002B06D1FB685B7B23F00103DAB2D8
:10460000FB685A73FB6803F118023B1D11461846FC
:10461000FFF791FCFB681B6AFA68526A10469847DC
:10462000FBF728FE78611F4B1B68002B03D01D4B46
:104630001B68F86898473B1D1846FFF7B0FC034617
:10464000002B00D01AE0FB6818331846FFF78CFCEB
:10465000FB685B7B03F00203002B0FD0FB685B7BE6
:1046600003F00103002B09D0FB685B7B23F00103FF
:10467000DAB2FB685A73F868FFF79CFD0748FFF74A
:104680008EFC0346002B99D000E000BF386900F093
:1046900019F900BF1837BD4680BD00BF800A00224F
:1046A000280D00222C0D002280B586B000AF3B1DE6
:1046B0001846FFF72FFC00F001F978616BE03D4BE5
:1046C0001B68183B3B61FBF7D5FDF8603B69DB6A73
:1046D000FA68D31A6FF00042934263D2364B1B68DC
:1046E000002B03D0344B1B68386998473869FFF7B3
:1046F000C0FC3B695B7B03F00203002B06D13B69E6
:104700005B7B23F00103DAB23B695A733B6903F127
:1047100018023B1D11461846FFF70DFC274B0022DF
:104720001A70786900F0CEF83B691B6A3A69526AE0
:1047300010469847224B1B68002B03D0204B1B6868
:104740003869984700F0BAF878611C4B01221A705A
:104750003B1D1846FFF723FC0346002B00D01AE050
:104760003B6918331846FFF7FFFB3B695B7B03F09F
:104770000203002B0FD03B695B7B03F00103002B8E
:1047800009D03B695B7B23F00103DAB23B695A73C2
:104790003869FFF70FFD0748FFF701FC0346002BC0
:1047A0008DD000E000BF786900F08CF800BF1837AA
:1047B000BD4680BD880A0022280D0022400100224B
:1047C0002C0D002280B584B000AF786007F108039B
:1047D00019461248FFF729FC0346002B09D0FEF7C3
:1047E000E3FF034602211846FFF7DAFAFEF7BAFCA8
:1047F00011E0FBF73FFDF860BA68FB68D31A6FF071
:104800000042934207D2BA68FB68D31ABB60BB6808
:104810001846FFF7E3F9FFF747FFD7E7880A0022BA
:1048200080B582B000AF00237B6009E07B68DB00CD
:10483000074A13441846FFF76DFB7B6801337B6022
:104840007B68002BF2D000BF00BF0837BD4680BD9B
:10485000800A002280B586B004AF00237B6009E0A7
:104860007B68DB00104A13441846FFF753FB7B6854
:1048700001337B607B68002BF2D00A23039304236F
:1048800002934FF400730193084B00930023084AEE
:1048900008490948FEF750FF0748FEF791FF00BF9F
:1048A0000837BD4680BD00BF880A0022280B0022C1
:1048B000C547000260D50002900A0022EFF3108085
:1048C00072B6704780F310887047484A1368012B0E
:1048D00004D04FF001031360454A1060454A11604F
:1048E00045484FF0805101607047EFF3108272B677
:1048F0003E48016879B34FF0000101603C4801680F
:1049000091B1EFF309811EF0100F08BF21ED108B5C
:1049100021E9F00F4FF000041EF0100F08BF012432
:1049200041F8044D0068016000B500F0D5FA5DF86B
:1049300004EB30490968096808C9B1E8F00F002B99
:1049400018BFB1EC108B81F309884EF0100E002BCC
:1049500018BF2EF0100E82F310884EF0040E704730
:1049600024490860EFF3148222F0040282F31488D1
:104970001F494FF0000008601C494FF0010008601B
:104980001E481F49D0F8002041EA020101601A4880
:104990004FF0805101601B480068006800BF80F341
:1049A000088861B662B6BFF34F8FBFF36F8F704751
:1049B00000BFEFF308801EF0040F01D0EFF3098071
:1049C00020E9F00F40F804ED40F804ED1EF0040F6C
:1049D00002D080F3098801E080F3088800B500F078
:1049E000B9F95DF804EB4EF0040E70473C0D00225F
:1049F000340D0022380D002204ED00E020ED00E02F
:104A00000000FFFF08ED00E080B489B000AFF8605F
:104A1000B9607A603B607B680433BB61BB6923F09B
:104A20000703BB61BB69443BBB61BB697B6100237E
:104A3000FB6108E0FB699B007A691344154A1A6020
:104A4000FB690133FB61FB69102BF3D9BA687B6901
:104A50005A627B6900229A627B690022DA627B6972
:104A600000221A637B6900225A633A687B699A6361
:104A7000FA687B69DA637B694FF080721A647B693C
:104A800000221A60BB6918462437BD465DF8047BD6
:104A9000704700BFEFBEADDE80B500AF2548FDF723
:104AA00021FC254B1B889BB219462448FDF71AFCB4
:104AB000214B1B889BB203F00103002B02D020483E
:104AC000FDF710FC1C4B1B889BB203F00203002B6C
:104AD00002D01C48FDF706FC174B1B889BB203F065
:104AE0000403002B02D01848FDF7FCFB124B1B8877
:104AF0009BB203F00803002B02D01448FDF7F2FB31
:104B00000D4B1B889BB203F48073002B02D010481E
:104B1000FDF7E8FB084B1B889BB203F40073002BE6
:104B200002D00C48FDF7DEFB0B48FDF7DBFB00BFB6
:104B300080BD00BFBCD500022AED00E0CCD500024C
:104B4000E4D50002F0D50002FCD5000204D6000234
:104B50000CD6000218D6000224D6000280B500AFA1
:104B60002648FDF7BFFB264B1B78DBB219462548CC
:104B7000FDF7B8FB224B1B78DBB203F00103002BDF
:104B800002D02148FDF7AEFB1D4B1B78DBB203F0D2
:104B90000203002B02D01D48FDF7A4FB184B1B7825
:104BA000DBB203F00403002B02D01948FDF79AFB97
:104BB000134B1B78DBB203F00803002B02D015481F
:104BC000FDF790FB0E4B1B78DBB203F01003002BBC
:104BD00002D01148FDF786FB094B1B78DBB25BB2B4
:104BE000002B06DA0D4B1B6819460D48FDF77AFBC2
:104BF00002E00C48FDF776FB00BF80BD28D600021E
:104C000029ED00E034D600024CD6000258D600024E
:104C100064D6000274D6000280D6000238ED00E0AF
:104C200088D6000224D6000280B500AF2148FDF7E7
:104C300059FB214B1B78DBB219462048FDF752FB8C
:104C40001D4B1B78DBB203F00103002B02D01C4884
:104C5000FDF748FB184B1B78DBB203F00203002B77
:104C600002D01848FDF73EFB134B1B78DBB203F074
:104C70000803002B02D01448FDF734FB0E4B1B78C1
:104C8000DBB203F01003002B02D01048FDF72AFB23
:104C9000094B1B78DBB25BB2002B06DA0C4B1B68AE
:104CA00019460C48FDF71EFB02E00B48FDF71AFB06
:104CB00000BF80BD98D6000228ED00E0ACD600020F
:104CC000C4D60002D0D60002DCD60002E8D600022C
:104CD00034ED00E0F4D6000224D6000280B500AF27
:104CE000164B1B6803F00203002B02D01448FDF79B
:104CF000F9FA124B1B6803F08043002B14D0114BC0
:104D00001B78DBB2002B01D0FFF728FF0E4B1B787E
:104D1000DBB2002B01D0FFF787FF0C4B1B889BB247
:104D2000002B01D0FFF7B8FE044B1B68002B02DA02
:104D30000748FDF7D7FA00BF80BD00BF2CED00E0AB
:104D400004D7000229ED00E028ED00E02AED00E0A4
:104D50001CD7000280B586B000AF78607B6828332E
:104D60007B617B6804333B61474B1B68002B07D09A
:104D7000454B1B6878699847F860FB68002B7ED02C
:104D80003B691B6C19464148FDF7ACFA3B695B6A0D
:104D900019463F48FDF7A6FA3B699B6A19463D480C
:104DA000FDF7A0FA3B69DB6A19463B48FDF79AFA22
:104DB0003B691B6B19463948FDF794FA3B695B6800
:104DC00019463748FDF78EFA3B699B681946354806
:104DD000FDF788FA3B69DB6819463348FDF782FA2C
:104DE0003B691B6919463148FDF77CFA3B695B69F1
:104DF00019462F48FDF776FA3B699B6919462D48FD
:104E0000FDF770FA3B69DB6919462B48FDF76AFA32
:104E10003B691B6A19462948FDF764FA3B695B6BDD
:104E200019462748FDF75EFA3B699B6B19462548F2
:104E3000FDF758FA3B69DB6B19462348FDF752FA38
:104E40007B681B6803F00403002B09D0FEF7ACFC61
:104E5000034619461D48FDF745FA00F03FF902E008
:104E60001B48FDF73FFA7B681B6803F01003002B1B
:104E700002D11848FDF736FAFFF730FFFEE700BF12
:104E80001837BD4680BD00BF400D00222CD7000260
:104E90003CD700024CD700025CD700026CD700025E
:104EA0007CD700028CD700029CD70002ACD700024E
:104EB000BCD70002CCD70002DCD70002ECD700023E
:104EC000FCD700020CD800021CD800022CD800022B
:104ED0004CD8000268D8000280B582B000AFFEF75F
:104EE00063FC0346DB6A7B607B6883F30B8800BF4F
:104EF0000837BD4680BD80B483B000AF78607B6862
:104F000093FAA3F3B3FA83F37A68002A01D14FF03E
:104F1000FF33013318460C37BD465DF8047B7047FC
:104F200080B500AFFCF7E4FA0346184680BD80B4B4
:104F300083B000AF78607B681B687A689A420CBFC8
:104F400001230023DBB218460C37BD465DF8047B15
:104F5000704780B485B000AF78600023FB607B6849
:104F6000BB6005E0BB681B68BB60FB680133FB608E
:104F7000BB681B687A689A42F4D1FB6818461437FC
:104F8000BD465DF8047B704780B500AF0248FDF771
:104F9000A9F90023184680BD8CD8000280B500AF67
:104FA000FCF76CFC0023184680BDFFFF80B582B083
:104FB00000AF786002E00648FDF794F97B685A1E5E
:104FC0007A60002BF7D100BF00BF0837BD4680BD17
:104FD00094D8000280B586B000AFF8607A603B607C
:104FE0000B46FB72FB7A1846FDF7B2FD78617B69D0
:104FF00004333B61FB683A691A60FB68FA7A1A72FB
:10500000FB687A685A60FB683A68DA60FB680022DD
:105010001A6100BF1837BD4680BD80B58AB000AFA9
:105020007860396000237B623B6800221A613B682C
:10503000DB68002B03D03B681B7A002B01D10023D7
:1050400047E03B681B687B617B68002B04D17B6970
:105050003B6201237B6201E07B683B62FFF72EFC31
:1050600038617B6A002B0FD13B6A103BFB60FB6809
:105070001B7B23F080033A68127A934204D038698C
:10508000FFF720FC002324E00023BB613B685B6842
:10509000FB613B6A1B683B623A6A7B699A4202D1B8
:1050A00000233B620EE0BB690133BB61FB691A1D43
:1050B000FA613A6A1A603B68DB68BA699A4200D0C2
:1050C000E7E700BF3869FFF7FDFB3B68BA691A6183
:1050D0003B6A18462837BD4680BDFFFF2DE9F041E9
:1050E000BEB002AF0023C7F8EC30844BC7F8E03005
:1050F0000A23C7F8DC3007F1940207F1B400082353
:105100000121FFF767FF0C23C7F8D8307C4BD7F895
:10511000DC20D7F8DC107B48FDF7E4F8D7F8E03066
:10512000D7F8D820D7F8D8107748FDF7DBF8D7F8AC
:10513000DC301846FFF73AFF7448FDF7D3F8D7F88C
:10514000D800FFF733FF7248FDF7CCF807F1B4033E
:105150001946D7F8EC00FFF760FFC7F8EC00002312
:10516000C7F8E830B8E0D7F8E8309B0007F1F00264
:10517000134453F85C3C103BC7F8D430FFF79EFB58
:10518000C7F8D000D7F8D4301B7B23F0800397F802
:10519000BC20934204D0D7F8D000FFF793FB96E0F1
:1051A0003B469422D7F8D4101846FCF721FAD7F8DA
:1051B000D000FFF787FBD7F8D430C7F8CC30D7F84A
:1051C000CC105448FDF78EF8D7F8CC20D7F8CC3067
:1051D00093F83930009313460C22D7F8D8104E4874
:1051E000FDF780F8D7F8CC3093F8383003F0070398
:1051F00087F8CB3097F8CB30022B03D14748FDF727
:1052000071F820E097F8CB3003F00403002B03D0B3
:105210004348FDF767F816E097F8CB30002B03D131
:105220004048FDF75FF80EE097F8CB30012B03D133
:105230003D48FDF757F806E097F8CB30032B02D135
:105240003A48FDF74FF8D7F8CC30DB6AC7F8E430BE
:1052500004E0D7F8E4300133C7F8E430D7F8E4309D
:105260001B78232BF5D0D7F8CC301A6BD7F8CC307D
:10527000DB6A1946D7F8CC301B6ACB1AD518D7F899
:10528000CC301E6BD7F8CC301A6BD7F8CC30DB6A39
:105290001946D7F8E430CB1A1344642203FB02F218
:1052A000D7F8CC301B6BB2FBF3F8D7F8CC309C6D41
:1052B000D7F8CC305B6B1846FCF7CCF8034601936B
:1052C00000944346324629461948FDF70BF8D7F8B3
:1052D000E8300133C7F8E830D7F8C430D7F8E82011
:1052E0009A42FFF640AFD7F8EC30002B7FF42EAF98
:1052F00000231846F037BD46BDE8F08198D800027B
:10530000A0D80002ACD80002B4D80002FCD8000239
:1053100000D9000240D9000244D9000250D900024D
:105320005CD9000268D9000274D9000280D9000259
:105330008CD9000280B584B000AF78607B681B68B0
:10534000FB6013E0FB68183BBB60BB681A460C218E
:105350000B48FCF7C7FFFB681B687A689A4202D0CB
:105360000848FCF7BFFFFB681B68FB60FA687B68B6
:105370009A42E7D100BF00BF1037BD4680BD00BFD5
:10538000B4D90002BCD90002B0B596B002AF002378
:10539000FB64414B7B643A4607F12000082302215D
:1053A000FFF718FE0C233B647B6C3A6C396C3B486E
:1053B000FCF798FF386CFFF7F9FD3948FCF792FFCE
:1053C00007F120031946F86CFFF727FEF864002365
:1053D000BB6454E0BB6C9B0007F15002134453F8CC
:1053E000503C103BFB63FFF769FAB863FB6B1B7B18
:1053F00023F0800397F82820934203D0B86BFFF77F
:1054000061FA39E0B86BFFF75DFAFB6B7B637B6B8E
:1054100018331846FFF78BFD0346002B1AD17C6B1F
:105420007B6B1B8C1D467B6B18331846FFF791FD79
:1054300003460193009523460C22396C1948FCF76A
:1054400051FF7B6B18331846FFF774FF1648FCF7C3
:1054500049FF11E07C6B7B6B1B8C1D467B6B18330B
:105460001846FFF776FD03460193009523460C226C
:10547000396C0E48FCF736FFBB6C0133BB643B6BE9
:10548000BA6C9A42A6DBFB6C002B99D1002318461C
:105490005037BD46B0BD00BFC0D90002CCD9000214
:1054A000E8D9000200DA000210DA000214DA000281
:1054B000B0B596B002AF0023FB643C4B7B643A4628
:1054C00007F1200008230421FFF784FD0C233B642F
:1054D0007B6C3A6C396C3648FCF704FF386CFFF78C
:1054E00065FD3448FCF7FEFE07F120031946F86C11
:1054F000FFF793FDF8640023BB644BE0BB6C9B009B
:1055000007F15002134453F8503C103BFB63FFF784
:10551000D5F9B863FB6B1B7B23F0800397F8282039
:10552000934203D0B86BFFF7CDF930E0B86BFFF7CB
:10553000C9F9FB6B7B637B6B18331846FFF7F7FCED
:105540000346002B19D17D6B7B6B1C6A7B6B183378
:105550001846FFF7FEFC0346019300942B460C22ED
:10556000396C1548FCF7BEFE7B6B18331846FFF705
:10557000E1FE1248FCF7B6FE09E07A6B7B6B1B6A12
:10558000009313460C22396C0D48FCF7ABFEBB6C44
:105590000133BB643B6BBA6C9A42AFDBFB6C002BF4
:1055A000A2D1002318465037BD46B0BD24DA000210
:1055B0002CDA000250DA000270DA000210DA00027F
:1055C00088DA0002F0B59DB006AF00237B654F4B33
:1055D000FB6407F1080207F1280008230321FFF705
:1055E000F9FC0C23BB64FB6CBA6CB96C4848FCF743
:1055F00079FEB86CFFF7DAFC4648FCF773FE07F15A
:1056000028031946786DFFF708FD786500233B6590
:105610006EE03B6D9B0007F15802134453F8503C79
:10562000103B7B64FFF74AF938647B6C1B7B23F0EB
:10563000800397F83020934203D0386CFFF742F98B
:1056400053E0386CFFF73EF97B6CFB63FB6B183360
:105650001846FFF76CFC0346002B27D1FC6BFB6B55
:105660005B6A1D46FB6B93F822301E46FB6B93F87A
:1056700021307B60FB6B18331846FFF76AFC03464A
:1056800004937B680393029601950C2300932346B1
:105690000C22B96C2048FCF725FEFB6B183318462A
:1056A000FFF748FE1D48FCF71DFE1EE0FC6BFB6B80
:1056B0005B6A1D46FB6B93F822301E46FB6B93F82A
:1056C00021307B60FB6B18331846FFF742FC034622
:1056D00004937B680393029601950C230093234661
:1056E0000C22B96C0E48FCF7FDFD3B6D01333B65A8
:1056F000BB6B3A6D9A428CDB7B6D002B7FF47FAFE6
:10570000002318465C37BD46F0BD00BF9CDA00029E
:10571000A4DA0002D4DA0002FCDA000210DA000295
:105720001CDB0002F0B599B004AF0023FB64454BCD
:105730007B643A4607F1200008230521FFF74AFC65
:105740000C233B647B6C3A6C396C3F48FCF7CAFD18
:10575000386CFFF72BFC3D48FCF7C4FD07F1200334
:105760001946F86CFFF759FCF8640023BB645CE051
:10577000BB6C9B0007F15002134453F8503C103BA4
:10578000FB63FFF79BF8B863FB6B1B7B23F0800385
:1057900097F82820934203D0B86BFFF793F841E0C5
:1057A000B86BFFF78FF8FB6B7B637B6B1833184686
:1057B000FFF7BDFB0346002B1ED17C6B7B6BDB8CA4
:1057C0001D467B6B9B8C1E467B6B18331846FFF780
:1057D000C0FB034602930196009523460C22396CC8
:1057E0001B48FCF77FFD7B6B18331846FFF7A2FDC3
:1057F0001848FCF777FD15E07C6B7B6BDB8C1D4656
:105800007B6B9B8C1E467B6B18331846FFF7A1FB06
:10581000034602930196009523460C22396C0E48EC
:10582000FCF760FDBB6C0133BB643B6BBA6C9A4206
:105830009EDBFB6C002B91D1002318465437BD46EC
:10584000F0BD00BF3CDB000244DB000268DB00026D
:1058500084DB000210DA00029CDB0002B0B596B0D7
:1058600002AF0023FB64414B7B643A4607F1200002
:1058700008230621FFF7AEFB0C233B647B6C3A6CDC
:10588000396C3B48FCF72EFD386CFFF78FFB39482D
:10589000FCF728FD07F120031946F86CFFF7BDFB64
:1058A000F8640023BB6454E0BB6C9B0007F150021A
:1058B000134453F8503C103BFB63FEF7FFFFB86303
:1058C000FB6B1B7B23F0800397F82820934203D0C7
:1058D000B86BFEF7F7FF39E0B86BFEF7F3FFFB6B31
:1058E0007B637B6B18331846FFF721FB0346002BC5
:1058F0001AD17C6B7B6B1B8D1D467B6B1833184656
:10590000FFF727FB03460193009523460C22396CD1
:105910001948FCF7E7FC7B6B18331846FFF70AFDC4
:105920001648FCF7DFFC11E07C6B7B6B1B8D1D4682
:105930007B6B18331846FFF70CFB03460193009569
:1059400023460C22396C0E48FCF7CCFCBB6C0133AF
:10595000BB643B6BBA6C9A42A6DBFB6C002B99D103
:10596000002318465037BD46B0BD00BFB4DB00026F
:10597000C0DB0002E0DB0002F8DB000210DA00020C
:105980000CDC000280B598B004AF0023FB642E4B02
:105990007B643A4607F1200008230721FFF71AFB32
:1059A0000C233B647B6C3A6C396C2848FCF79AFCFE
:1059B000386CFFF7FBFA2648FCF794FC07F120034C
:1059C0001946F86CFFF729FBF8640023BB642FE04D
:1059D000BB6C9B0007F15002134453F8503C103B42
:1059E000FB63FEF76BFFB863FB6B1B7B23F080034D
:1059F00097F82820934203D0B86BFEF763FF14E0BA
:105A0000B86BFEF75FFFFB6B7B63786B7B6BDB69CF
:105A10007A6B526A796B096A02910192009303468C
:105A20000C22396C0B48FCF75DFCBB6C0133BB648A
:105A30003B6BBA6C9A42CBDBFB6C002BBED10023D4
:105A400018465037BD4680BD20DC000228DC00022D
:105A50005CDC000288DC000290B59BB004AF002340
:105A60007B65474B7B643A4607F1200008230821F9
:105A7000FFF7B0FA0C233B647B6C3A6C396C4148FD
:105A8000FCF730FC386CFFF791FA3F48FCF72AFC32
:105A900007F120031946786DFFF7BFFA78650023F8
:105AA0003B6560E03B6D9B0007F15802134453F8DF
:105AB000583C103BFB63FEF701FFB863FB6B1B7B9D
:105AC00023F0800397F82820934203D0B86BFEF7A9
:105AD000F9FE45E0B86BFEF7F5FEFB6B7B63002338
